:020000040800F2
:1000000098410020810200084D5D00081F4500084E
:10001000495D0008D10D0008E570000800000000EF
:10002000000000000000000000000000A101000826
:10003000210F000800000000FD0100082D680008E5
:100040009B0200089B0200089B0200089B0200081C
:100050009B0200089B0200089B0200089B0200080C
:100060009B0200089B0200089B0200089B020008FC
:100070009B0200089B0200089B0200089B020008EC
:100080009B0200089B0200089B0200089B020008DC
:100090009B0200089B0200089B0200085D1F0008ED
:1000A0009B020008E96800089B0200089B02000808
:1000B0009B0200089B0200089B0200089B020008AC
:1000C0009B0200089B0200089B0200089B0200089C
:1000D0009B02000841700008717000089B02000834
:1000E000491F00089B0200089B0200089B020008B1
:1000F0009B0200089B0200089B0200089B0200086C
:100100009B0200089B0200089B0200089B0200085B
:100110009B0200089B0200089B0200089B0200084B
:100120009B0200089B0200089B0200089B0200083B
:100130009B0200089B0200089B0200089B0200082B
:100140009B0200089B0200089B0200089B0200081B
:100150009B0200089B0200089B0200089B0200080B
:100160009B0200089B0200089B0200089B020008FB
:100170009B0200089B020008000000000000000035
:100180009B0200089B020008DFF810D000F088FCFA
:1001900000480047FD920008AFF30080984100201E
:1001A0002C4B1968086800F05AB880F30988BFF32F
:1001B0006F8F4FF0000080F311887047000000003F
:1001C00008480068006880F308884FF0000080F35A
:1001D000148862B661B6BFF34F8FBFF36F8F00DF35
:1001E00000BF00BF08ED00E0DFF80C00016841F43B
:1001F00070010160704700BF88ED00E0EFF30980F7
:10020000BFF36F8F134B1A681EF0100F08BF20ED5D
:10021000108A20E9F04F106009B44FF0500080F3CD
:100220001188BFF34F8FBFF36F8F0AF0B9FA4FF009
:10023000000080F3118809BC1968086800F014B840
:100240001EF0100F08BF00F014B880F30988BFF348
:100250006F8F704784000020EFF30580704730C82F
:10026000B0E8C04FFFF7A1BF30C8B0E8C04FFFF7FC
:10027000E7BFB0EC088AB0EC08CAFFF7E6BF0000A1
:100280000648804706480047FEE7FEE7FEE7FEE730
:10029000FEE7FEE7FEE7FEE7FEE7FEE7D5680008BB
:1002A000890100082DE9F05F0546002092469B4633
:1002B00088460646814640241BE02846414647467C
:1002C000224600F0D0FA53465A46C01A914110D344
:1002D00011461846224600F0B7FA2D1A67EB0108BE
:1002E0004F4622460120002100F0AEFA17EB00092C
:1002F0004E41201EA4F10104DFDC484631462A4667
:10030000434600F000B830BCBDE8C09FA0F14101F9
:10031000192900D82030704740EA01039B0703D019
:1003200009E008C9121F08C0042AFAD203E011F834
:10033000013B00F8013B521EF9D27047D2B201E0F6
:1003400000F8012B491EFBD270470022F6E710B5DA
:1003500013460A4604461946FFF7F0FF204610BD33
:1003600030B505462A460B4612F8010B13F8014B2F
:1003700008B1A042F8D01CB1002802D06D1CF1E7F2
:10038000284630BDCAB2401E10F8011F8A4202D072
:100390000029F9D100207047421C10F8011B0029E8
:1003A000FBD1801A704710B5044600E0401C03786A
:1003B000002BFBD100E0401C521E04D311F8013B7E
:1003C0000370002BF7D100210170204610BD30B51D
:1003D00005460020034600E05B1C934205D2EC5C1E
:1003E000C85C201A01D1002CF6D130BD70B506468C
:1003F00007F038F8046805460A220021304600F06C
:1004000054FA2C6070BD2DE9FE4F804681EA03004E
:10041000C00F0C46009021F0004123F00045B8EBDE
:100420000200A94105D24046214690461C460B4693
:10043000024623F00040104347D0270DC7F30A00BF
:10044000C3F30A510290401A019040286BDAC3F3BB
:10045000130040F4801B0098924620B10023D2EB99
:10046000030A63EB0B0B01985946C0F1400250465A
:1004700000F0EAF906460D4650465946019A00F04A
:1004800002FA10EB08006141002487EA115284EA65
:10049000E7731A4340D0009A62B3019A012A4FEAE7
:1004A000075215DC001B61EB02014FF0004202EA2B
:1004B0000752CDE90042001C41F5801132462B461F
:1004C00000F071FA03B000F045B840462146F9E764
:1004D000001B61EB0201001C41F5801300185B4119
:1004E0002018A2F5001747EB030140EAD570B619B2
:1004F0006D4111E06D084FEA360645EAC0754FEAD6
:100500000752001B61EB0201001C41F580114908F4
:100510004FEA30000019514132462B4603B000F03B
:100520001CB800F031BA0098012240000023D0EB43
:10053000020263EBE073009821464FEAE074B8EBE7
:10054000000061EB0401E9E783F000435BE781F021
:10055000004158E730BCBDE8C08F30BCBDE8C04F9B
:10056000FFF7DFBF2DE9FE4F81EA030404F00044EA
:1005700021F0004100944FF0000B23F0004350EABB
:1005800001045ED052EA03045BD0C3F30A54C1F302
:100590000A552C44A4F2F3340194A0FB0254C1F395
:1005A000130141F48011C3F3130343F4801301FBDF
:1005B000024400FB034E840A970A44EA815447EA46
:1005C0008357A4FB076802958D0A05FB07854FEA50
:1005D000932C04FB0C542705029D4FEA065847EA6A
:1005E0001637B5EB08056EEB070C870E920E47EA3F
:1005F000811742EA8312A7FB0201B6EB0B0164EB01
:1006000000042B0D43EA0C335E1844EB1C50DA4611
:100610005146E7FB0201C5F313044FEA0B3343EAEB
:1006200014534FEA0432019C43EA0603A4F10C047C
:100630000294009CCDE900B400F0B5F903B000F0DD
:1006400003B800200146F9E730BCBDE8C08F2DE9B2
:10065000F04D81EA030404F0004B21F000451446FC
:100660004FF0000A23F0004150EA050220D054EA7E
:1006700001021DD0C5F30A570246C5F31303C1F3A7
:100680001300C1F30A5640F4801543F48013A7EB1E
:100690000608101BD64608F2FD3873EB050002D39E
:1006A00008F1010801E092185B41B8F1000F03DA8C
:1006B00000200146BDE8F08D00204FF48011064671
:1006C00084460EE0171B73EB050705D3121B63EB83
:1006D000050306434CEA010C49084FEA3000921822
:1006E0005B4150EA0107EDD152EA030012D082EAE1
:1006F000040083EA0501084305D0101BAB4106D274
:100700000122002306E000224FF0004302E06FF0D8
:10071000010253101AEB06004CEB085110EB0A00D3
:1007200041EB0B01BDE8F04D00F02EB90EB5C10F45
:1007300080EAE0700844CA07002140F233438DE8A4
:100740000E000A460B4600F02EF903B000BD70B54E
:10075000C1F30A5201F000450024C1F3130140F235
:10076000FF3341F480119A4201DA002070BD40F25B
:1007700033439A42A2F2334203DC524200F073F850
:1007800000E090402C43F1D0404270BD00F00042A8
:1007900030F000400AD0C10D01F56071C0F31600C1
:1007A00042EA0151C2084007114370470020014648
:1007B0007047000030B5041E71F1000404DB4FF0F7
:1007C0000044404264EB0101141E73F1000405DB98
:1007D0001C464FF00043524263EB0403994208BFAA
:1007E000904230BD01F0004330B421F0004150EAA6
:1007F000010206D00A0DA2F56072C1F31301002AAE
:1008000002DC30BC00207047440F44EAC104C10040
:10081000E01830BC00EBC25000F07FB830B50B469A
:10082000014600202022012409E021FA02F59D4220
:1008300005D303FA02F5491B04FA02F52844151EF4
:10084000A2F10102F1DC30BD202A04DB203A00FADB
:1008500002F1002070479140C2F1200320FA03F317
:10086000194390407047202A04DB203A21FA02F015
:100870000021704721FA02F3D040C2F120029140DA
:10088000084319467047202A06DBCB17203A41FA65
:1008900002F043EAE07306E041FA02F3D040C2F10D
:1008A000200291400843194670472DE9F0479146D0
:1008B0000F4680460446002614F8015B2DB100F077
:1008C00001F90068405DC007F6D12B2D02D02D2D17
:1008D00018D0641E4A463946204600F0F7F827B182
:1008E0003968A14201D1C7F8008071054FF00204B8
:1008F0000BD54042002803DD06F0B4FD0460A007DC
:10090000BDE8F08746F48066E4E70028F8DA06F0F0
:10091000A9FD04606FF00040F2E70029A8BF70470E
:10092000401C490008BF20F00100704710B4B0FA25
:1009300080FC00FA0CF050EA010404BF10BC7047C0
:1009400049B1CCF1200421FA04F411FA0CF118BFDA
:10095000012121430843A3EB0C01CB1D4FEA0061A9
:100960004FEA102042BF002010BC704700EBC3507C
:1009700010440029A4BF10BC7047401C490008BFA8
:1009800020F0010010BC704710B5141E73F1000474
:1009900008DA401C41F1000192185B411A4301D171
:1009A00020F0010010BD2DE9F04D92469B4611B19B
:1009B000B1FA81F202E0B0FA80F220329046FFF7FD
:1009C00043FF04460F4640EA0A0041EA0B01534642
:1009D0005A46084313D0114653EA010019D0C8F112
:1009E00040025046FFF73FFF05460E465046594627
:1009F0004246FFF729FF084305D0012004E02046C6
:100A00003946BDE8F08D0020054346EAE0762C43E8
:100A100037430A986305E40AA0EB08000022FD0AA8
:100A200044EA47540A3002D500200146E9E70105AF
:100A300010196941DDE9084500196941BDE8F04D2B
:100A4000A2E770B521F0004303430CD0C1F30A556F
:100A50000024D5EB040564EB0403D617AD1AB341AB
:100A600002DB0020014670BD201841EB025170BD31
:100A7000C1F30A52C1F3130140F2FF3341F4801174
:100A80009A4202DA00200146704740F233439A420C
:100A9000A2F2334202DC5242FFF7E5BEFFF7D4BEBA
:100AA000064C074D06E0E06840F0010394E80700BB
:100AB00098471034AC42F6D3FFF76AFB2C5B020870
:100AC0004C5B0208004870474C5A02082DE9F05F61
:100AD00082460078002715468B460AF10104B94684
:100AE000302801D09DB113E014F8010B01277828BC
:100AF00003D0582801D045B10AE00DB1102D07D11F
:100B00000027102514F8010B02E0082500E00A2553
:100B10000026B0460EE005FB080005FB06F10127A4
:100B200001EB10461FFA80F8B6F5803F00D3B946B6
:100B300014F8010B294600F06CF80028EBDABBF141
:100B4000000F05D00FB1641E00E05446CBF8004002
:100B5000B9F1000F06D006F085FC02210160C81E25
:100B600000F003B848EA0640FAE730BCBDE8C09F91
:100B70002DE9F04D00231A461B1A8A4103DB0020A1
:100B80000146BDE8F08DC1F30A52C1F3130141F4EF
:100B900080154FF0000BD10702D100186D41521E95
:100BA0000027044640F2FF11384601EB620A3E4638
:100BB0008046024600204FF48011FFF754FEC21910
:100BC0007141BB1846EB0100B4EB030C75EB000C54
:100BD00004D3E41A65EB000517460E46241908F104
:100BE00001006D4180463428E3DDF91946EB06002B
:100BF000091BA84103D24FF0FF32134601E0002247
:100C000013461BEB070046EB0A51BDE8F04DFFF71A
:100C1000BBBE3A2800D2303820F02002412A01D34E
:100C2000A2F13700884201D34FF0FF30704738B54A
:100C30000020009003F0A6FC02226946A82000F0E4
:100C4000A1F804460CB1012038BD4FF4967001F0B4
:100C5000EDF908208DF8000000208DF80100022237
:100C60006946E12000F08EF804460CB10120EBE764
:100C70004FF4967001F0DAF90020E5E770B505460B
:100C80000E4603F05FFD712003F022FD03F0AEFD80
:100C900018B103F081FD012070BD00240DE0701E2D
:100CA000A04204D1002003F0DDFC285503E0012020
:100CB00003F0D8FC2855601CC4B2B442EFDB03F04B
:100CC0006BFD0020E8E7000010B52DED0A8B84B025
:100CD000002400200390022203A9AC2000F052F867
:100CE00004462CB1B7EE000A04B000F045B810BDC0
:100CF000062101A8FFF7C2FF044614B1B7EE000AAF
:100D0000F2E79DF807100907090B9DF8082041EA52
:100D100002219DF8092041EA0200FFF707FD41EC9E
:100D20001C0B9FED0F0B53EC102BFFF71BFC41EC42
:100D30001B0B9FED0D0B53EC102BFFF788FC41ECC8
:100D40001A0B9FED0B0B53EC102BFFF7FDFB41EC47
:100D5000190BFFF747FD08EE100AB0EE480AC3E78B
:100D60000000000000006940000000000000304169
:100D70000000000000004940BDEC088BBDEC02CB38
:100D8000FFF7B5BF2DE9F04107460D46164603F0C3
:100D9000D9FC702003F09CFC03F028FD20B103F087
:100DA000FBFC0120BDE8F081384603F091FC03F024
:100DB0001DFD002406E0285D03F08AFC03F016FD0B
:100DC000601CC4B2B442F6DB03F0E6FC0020E9E7A5
:100DD00000BFFEE700B587B0142102A8FFF7B5FAFF
:100DE00000BF2148C06C40F002001F49C86408469B
:100DF000C06C00F00200019000BF00BF00BF0846B9
:100E0000C06C40F00100C8640846C06C00F00100EE
:100E1000019000BF00BF00BF0846C06C40F0040056
:100E2000C8640846C06C00F00400019000BF00BF19
:100E30004FF4A07002900120039000200490022043
:100E4000059002A9094801F041F94FF400700290A1
:100E500001200390002004900220059002A903487D
:100E600001F034F907B000BD001002400004004852
:100E700010B586B00446012C0AD140200190022012
:100E800004900120029001A9084801F01FF90AE02E
:100E90004CB940200190022004900020029001A94A
:100EA000024801F013F906B010BD00000008004828
:100EB00007E06E2101E04A1ED1B20029FBDC421E90
:100EC000D0B20028F5DC704710B5FFF783FF022091
:100ED000FFF7EEFF1148006840F400700F4908600A
:100EE0004FF09040806A40F480704FF090418862EB
:100EF00000218E2008F0DEF8A721902008F0DAF813
:100F000080218E2008F0D6F8812007F0C5FF00F080
:100F1000800008B108F054F910BD00002804004812
:100F20007047000030B58BB0002007900890099002
:100F30000A9001252BA32DA237A139A006F03AFA79
:100F400007A8002102910391CDE9041000912B0222
:100F500024A2019125A130A004F018F800283BD16B
:100F6000089A91B2079800F073FFFA2000F036FE5D
:100F70000446002C2CD0204604F09EFC022827D1E9
:100F8000204604F068FB06281DD2DFE800F00308C5
:100F90000C1014182EA006F00DFA002517E031A051
:100FA00006F008FA13E036A006F004FA0FE03DA0C0
:100FB00006F000FA0BE043A006F0FCF907E04AA0B7
:100FC00006F0F8F903E053A006F0F4F900BF00BF03
:100FD00007A803F089FF02E055A006F0EBF92846C8
:100FE0000BB030BD646576696365310035383746CE
:100FF0004630323045383046433935443145424534
:101000003038363441364537333444343546364447
:101010003644384500000000526179433032000008
:10102000454D51585F4465764C696E6B0D0A5052C0
:101030004F49443A2025732C09415549463A202509
:10104000732C0944455649443A25730D0A000000A3
:10105000546970733A09C1ACBDD3B3C9B9A60D0ABE
:10106000000000005741524E3A09C1ACBDD3CAA797
:10107000B0DCA3BAD0ADD2E9B4EDCEF30D0A0000D6
:101080005741524E3A09C1ACBDD3CAA7B0DCA3BA8E
:10109000B7C7B7A8B5C4636C69656E7469640D0A97
:1010A000000000005741524E3A09C1ACBDD3CAA757
:1010B000B0DCA3BAB7FECEF1C6F7CAA7B0DC0D0A02
:1010C000000000005741524E3A09C1ACBDD3CAA737
:1010D000B0DCA3BAD3C3BBA7C3FBBBF2C3DCC2EB78
:1010E000B4EDCEF30D0A00005741524E3A09C1AC9F
:1010F000BDD3CAA7B0DCA3BAB7C7B7A8C1B4BDD324
:1011000028B1C8C8E7746F6B656EB7C7B7A8290D5B
:101110000A0000004552523A09C1ACBDD3CAA7B07B
:10112000DCA3BACEB4D6AAB4EDCEF30D0A0000000B
:101130005741524E3A094D5154545F5061636B65AB
:1011400074436F6E6E656374204661696C65640DEF
:101150000A00000070B588B005460C4600200490D7
:101160000590069007902046FFF716F9064604A85A
:101170000121002200923346CDE90121039022464D
:1011800029460A2004F055F838B9059A91B2049816
:1011900000F05EFE04A803F0A7FE08B070BD0000DA
:1011A0002DE9F14FAAB00020269027902890299091
:1011B0002590249023902290219020901F904C22E3
:1011C000FE4906A8FFF7A8F8002005902A9804F029
:1011D00073FB21902198C01E0D287DD2DFE810F00E
:1011E0001E0046034E03660380037C0088037C00D8
:1011F00094037C007C007C000D0022AB25AA24A96E
:101200002A9804F0E2F91F901F9830B9BDF8883091
:10121000EBA0DDE9241206F0CDF885E3F14820A922
:1012200022AA25ABCDE90021029023AA24A92A985D
:1012300004F020FA1F901F9800286FD1BDF8883065
:10124000E9A0DDE9241206F0B5F8259807F0DAFCEC
:101250001E901E9838B907F0AFFC83465946EDA0A2
:1012600006F0A8F8FEE245E006AA059852F820101C
:101270001E9807F0A7FC0446EBA11E9807F0A2FCFD
:101280001C90EBA11E9807F09DFC1B90EAA11E98F4
:1012900007F098FC1A90EAA11E9807F093FC1990A9
:1012A000EAA11E9807F08EFC0746EAA11E9807F0F7
:1012B00089FC0546E9A11E9807F084FC0646E9A1D1
:1012C0001E9807F07FFC8046E8A11E9807F07AFC84
:1012D0008146E8A11E9800E022E307F073FC1D9010
:1012E000E6A11E9807F06EFC824604B105E0059861
:1012F000401C059005981428B6DB00BFE1A1206AC8
:10130000FFF72EF808B3606948B100228021DF485A
:1013100000F0ECFF0120DE49086008E0A5E20122B0
:101320008021DA4800F0E2FF0120D9490860D8485E
:10133000D8A10268DC4806F04DF8DB49DBA0FFF7D6
:1013400009FF0020D249086086E2DCA1206AFFF78D
:1013500007F880B10120CE4908600846CDA1026897
:10136000D14806F037F8D049D0A0FFF7F3FE0020AF
:10137000C749086070E2D3A1206AFEF7F1FF40B1CF
:10138000D2A1C94806F026F8C749C8A0FFF7E2FE77
:1013900062E2D2A1206AFEF7E3FFF0B1207DD249DC
:1013A000087008460278D1A1D14806F013F8062249
:1013B000D049CF4805F054FF0120B54908600846E0
:1013C000B4A10268B84806F005F8B749B7A0FFF71E
:1013D000C1FE0020AE4908603EE2C7A1206AFEF7C8
:1013E000BFFF50B1C0480278C5A1AF4805F0F2FF79
:1013F000AD49AEA0FFF7AEFE2EE2C6A1206AFEF711
:10140000AFFF0028A0D01C99086A87A1FEF7A8FFAB
:1014100078B11C980069C149086008460068FEF769
:10142000BBFF8346BE4BBF4A5946BC48006805F027
:101430005BFE1B99086A7EA1FEF792FFB8B11B986C
:10144000007DA949087008460078002804DD0122C3
:1014500080218E4800F04AFFA3480278A3A1A44847
:1014600005F0B8FF0622A349A14805F0F9FE1A9934
:10147000086A71A1FEF774FF18B11A98808AAA4908
:1014800008801999086A6EA1FEF76AFF00282DD01E
:101490001998808AA549088008460088012826D125
:1014A0006AA1386AFEF75CFF00B3A1A13869FEF7B4
:1014B00057FFD8B167A1286AFEF752FF20B1D5F8CF
:1014C00014B09D4981F800B064A1306AFEF748FF6E
:1014D00048B170690490994904980870594698A0D9
:1014E000049A05F067FF0120694908609BE18F4875
:1014F0000088022848D155A1386AFEF731FF00283C
:1015000041D08BA13869FEF72BFF00283BD051A1B9
:10151000286AFEF725FF20B168690490864904987F
:1015200008704EA1306AFEF71BFF60B1D6F814B008
:10153000824981F800B05A4681A0049905F03AFF2B
:1015400001205349086047A1D8F82000FEF708FFA2
:1015500028B1D8F8140003907F490398087043A17C
:10156000D9F82000FEF7FCFE50B1D9F81400029023
:101570007A49029808707AA0DDE9022105F01AFF85
:101580000120434908604EE1684800880328ADD136
:101590002EA1386AFEF7E4FE00280ED064A1386957
:1015A000FEF7DEFE0028F8D02AA1286AFEF7D8FE52
:1015B00010B1D5F814B0DFE0E1E033E12C580208B7
:1015C000636D6469643A2025732C207265713A203A
:1015D00025732C207265715F6C656E3A2025640D51
:1015E0000A0000003C000020746F7069633A2025F7
:1015F000732C20207061796C6F61643A2025732C04
:10160000207061796C6F61645F6C656E3A2025644F
:101610000D0A00004572726F723A206265666F7241
:10162000653A5B25735D0A006D65644E616D65000A
:101630006D6564416C6C00006D65644E756D0000F5
:101640006D656454696D65730000000073657454C2
:10165000696D6500686F7572310000006D696E75A7
:1016600074653100686F7572320000006D696E75C7
:1016700074653200686F7572330000006D696E75B5
:10168000746533006C656430000000000010004891
:101690002C0000207B225365745374617465223AD8
:1016A0002025647D00000000781900206D657373AB
:1016B0006167652F64657669636531006C61756E7D
:1016C0006368000068656C6C6F0000007B226865D1
:1016D0006C6C6F223A20317D000000007365744D00
:1016E0006564416C6C0000003E0000202564000031
:1016F0003000002000308000636865636B000000EC
:101700007B226D65646963696E65223A2025647D7C
:10171000000000007365744D656400004400002003
:1017200028000020C21A0020480000204C000020A1
:10173000636C6F636B0000004E0000204F000020C0
:10174000436C6F636B20312069733A20253032641B
:101750003A253032640D0A0050000020510000206C
:10176000436C6F636B20322069733A2025303264FA
:101770003A253032640D0A00774981F800B0AFF2A3
:101780002411306AFEF7ECFD50B170690490734982
:10179000049808705946AFF25800049A05F00AFE02
:1017A000AFF24011D8F82000FEF7DAFD28B1D8F8E2
:1017B000140003906A4903980870AFF25011D9F8E9
:1017C0002000FEF7CDFD58B1D9F81400029065490C
:1017D00002980870AFF27800DDE9022105F0EAFD19
:1017E0001D99086AAFF27411FEF7BAFD28B11D9871
:1017F000406901905C4901980870AFF28011DAF8F5
:101800002000FEF7ADFD50B1DAF814000090574902
:101810000098087056A0DDE9002105F0CBFD0120FD
:101820005949086000BF584858A102685B4805F054
:10183000D1FD5A49AFF28C10FFF78CFC00205249C1
:101840000860574800880090564803885648027838
:10185000564957A005F0AEFD24B161A06269216A26
:1018600005F0A8FD1E9807F07BF95DE02A9803F0CB
:10187000E4FF10B963A005F09DFD55E02A9803F040
:10188000FAFF90B967A005F095FD26A90A2003F09C
:10189000D3FD50B969A005F08DFD279A91B2269825
:1018A00000F0D6FA26A803F01FFB3DE06948018846
:1018B0002A9803F0EFFF90B967A005F07BFD26A9F9
:1018C0000A2003F095FD50B969A005F073FD279A31
:1018D00091B2269800F0BCFA26A803F005FB23E09D
:1018E0002A9803F0B9FF10B968A005F063FD1BE06A
:1018F0002A9804F01BF818B96AA005F05BFD02E015
:101900006FA005F057FD0FE02A9804F029F818B9E8
:1019100072A005F04FFD02E077A005F04BFD03E05B
:101920004FF0FF301F9000BF00BF00F02DF91F984F
:10193000401C10B92BB000F0EFB821980F2802D04E
:101940002198032805D1249807F0B0FC259807F0CA
:10195000ADFC00BFEEE700004E0000204F0000206D
:1019600050000020510000205200002053000020B1
:10197000436C6F636B20332069733A2025303264E7
:101980003A253032640D0A002C0000207B2253657A
:10199000745374617465223A25647D0078190020BF
:1019A0004C000020480000203E000020C21A002009
:1019B000D0C2D4F6D2A9C6B725732CD7DCCAFD2570
:1019C000642CB5A5B4CEB7FED3C32564BFC52CC364
:1019D000BFC8D5B7FED3C32564B4CEA1A30D0A00FA
:1019E0006A736F6E5F737472696E67203D20257332
:1019F0002C6A736F6E5F696E74203D2025640D0A3A
:101A000000000000546970733A094D51545420503D
:101A100075626C6973682053656E64204F4B0D0AC4
:101A200000000000546970733A09526576205075C1
:101A3000626C6973685265630D0A000054697073C3
:101A40003A0953656E64205075626C69736852651B
:101A50006C0D0A003C000020546970733A0952650D
:101A600076205075626C69736852656C0D0A0000CF
:101A7000546970733A0953656E64205075626C69DD
:101A80007368436F6D700D0A000000005469707335
:101A90003A09526576205075626C697368436F6DC0
:101AA000700D0A00546970733A094D515454205313
:101AB0007562736372696265204F4B0D0A00000006
:101AC000546970733A094D515454205375627363CD
:101AD00072696265204572720D0A00005469707364
:101AE0003A094D51545420556E53756273637269AF
:101AF0006265204F4B0D0A00546970733A094D51CD
:101B0000545420556E537562736372696265204543
:101B100072720D0A0000000030BCBDE8C08F0000EA
:101B200070B586B004460D46002600200290039052
:101B30000490059006E054F826100DA005F03AFC3C
:101B4000701CC6B2AE42F6DB02A82B46224600212C
:101B50000090142003F094FC38B9039A91B20298D3
:101B600000F076F902A803F0BFF906B070BD0000DE
:101B700053756273637269626520546F7069633A6A
:101B80002025730D0A00000010B54FF48061034852
:101B9000FEF7DBFB00200249088010BDF8000020A2
:101BA0000400002010B508A005F004FC0AA000F015
:101BB000A3F9322000F03AFA07A000F09DF9322094
:101BC00000F034FA10BD0000CDCBB3F6CDB8B4AB05
:101BD000C4A3CABD0D0A00002B2B2B0070B505460F
:101BE000002400BF00F096F980B90DA10E48FEF761
:101BF000B7FB044654B13A212046FEF7C3FB044626
:101C000014B1641C204670BD0020FCE7052000F0E4
:101C10000DFA681E85B2002DE4DC0020F3E7000019
:101C20004950442C00000000F800002010B5FFF7D8
:101C3000ABFFFFF7B7FF1CA005F0BCFBC8221CA13F
:101C40001CA000F015F94FF4FA7000F0EFF91BA09A
:101C500005F0B0FBC82216A11BA000F009F94FF453
:101C6000FA7000F0E3F91BA005F0A4FB03E04FF4C9
:101C7000FA7000F0DBF9C8220DA11AA000F0F8F804
:101C80000028F4D11BA005F095FB03E04FF4FA7097
:101C900000F0CCF9C8221AA11BA000F0E9F8002836
:101CA000F4D100F041F810BD312E2041540D0A004E
:101CB0004F4B000041540D0A00000000322E20520C
:101CC00053540D0A0000000041542B5253540D0A86
:101CD00000000000332E41542B4357444843500D1D
:101CE0000A00000041542B4357444843503D312CD7
:101CF000310D0A00342E2043574A41500D0A00008E
:101D0000474F54204950000041542B43574A4150FB
:101D10003D22353132222C2261313233343536378F
:101D20003839220D0A0000001CB5FFF72DFF1FA057
:101D300005F040FB4FF6FF7002F0B6FD4FF478401F
:101D40001E4908801EA018210B46F022CDE9001084
:101D50003221002003F064F803E04FF4FA7000F041
:101D600065F9C8221CA11EA000F082F80028F4D159
:101D700025A005F01FFB02E0C82000F057F9C8229B
:101D800024A125A000F074F80028F5D103E04FF459
:101D9000FA7000F04BF9C82223A124A000F068F8E3
:101DA0000028F4D125A005F005FB1CBD372E4349C2
:101DB0005053544152540D0A000000000800002006
:101DC000506C6561736520636F6E6E65637420731C
:101DD00065727665722E0000434F4E4E45435400A7
:101DE00041542B43495053544152543D2254435083
:101DF000222C223132322E392E372E313931222CFB
:101E0000313838330D0A0000382E4349504D4F44C5
:101E1000450D0A004F4B000041542B4349504D4F94
:101E200044453D310D0A00003E00000041542B4363
:101E3000495053454E440D0A0000000045535038A8
:101E400032363620496E6974204F4B0D0A0000006F
:101E500070B504460D46FFF797FE4FF6FF732A460E
:101E60002146024802F0EEFA70BD00001C2000205E
:101E70002DE9F04104460E4615462046FEF78CFA41
:101E800087B24FF6FF733A462146114802F0DAFA5C
:101E900003E014F8010B05F015F920780028F8D1BB
:101EA0000FE000F037F848B931460A48FEF758FA13
:101EB00020B1FFF769FE0020BDE8F0810A2000F0A4
:101EC000B5F8281EA5F101018DB2EAD10120F3E792
:101ED0001C200020F8000020C0F30801054A126809
:101EE000118500BF03490968C96901F04001002953
:101EF000F8D070471C20002010B50446FFF744FEC0
:101F000003E014F8010BFFF7E7FF20780028F8D171
:101F100010BD00000A48008808B901207047084831
:101F2000008808490988884203D1002004490880B4
:101F3000F4E703480088034908800120EEE7000029
:101F4000040000200600002010B54FF4806000F06F
:101F5000AFF84FF4005000F0ABF810BD10B54FF4DF
:101F6000807000F0A5F84FF4007000F0A1F810BDEB
:101F700072B600BFFEE70146002291F82500022854
:101F800008D00420C86300BF002081F8240000BFEF
:101F9000012070470868006820F00E000B68186088
:101FA0000868006820F001000B68186091F8440090
:101FB00000F01C03012098400B6C5860012081F850
:101FC000250000BF002081F8240000BF1046E0E794
:101FD00070B50446002594F82500022803D004209B
:101FE000E063012520E02068006820F00E002168F1
:101FF00008602068006820F001002168086094F8FB
:10200000440000F01C0101208840216C4860012040
:1020100084F8250000BF002084F8240000BFA06BD6
:1020200010B12046A16B8847284670BD70B50446A4
:1020300000F062F906462546681C10B10448007895
:10204000054400BF00F058F9801BA842FAD370BDC8
:102050007C00002010B50446B4F5806F03D18021C8
:10206000124800F039F9B4F5007F04D14FF48071C3
:102070000E4800F031F9B4F5807F04D14FF40071BF
:102080000A4800F029F9B4F5005F0ED1012251028F
:10209000064800F02BF901221102044800F026F94D
:1020A00001228021014800F021F910BD00100048F4
:1020B00010B5044604480068204020B1024804607E
:1020C0002046FFF7C7FF10BD1404014078B5024653
:1020D0000B460021DFE001268E401D6805EA06045C
:1020E000002C7DD01D7905F00305012D04D01D794C
:1020F00005F00305022D13D190684E000325B5406D
:10210000A8434E00DD68B540284390605068012523
:102110008D40A8431D79C5F300158D4028435060BC
:102120001D7905F00305032D09D1D06A01258D40E5
:10213000A8431D79C5F3C0058D402843D0621D79A1
:1021400005F00305032D09D0D0684E000325B540E6
:10215000A8434E009D68B5402843D0601D7905F026
:102160000305022D13D1CE0802F1200555F82600F3
:102170004D07EE0E0F25B540A8434E07F60E1D691C
:10218000B5402843CE0802F1200545F82600106826
:102190004E000325B540A8431D7905F003054E0008
:1021A000B540284310605D6805F44035002D71D0BE
:1021B00000BF3C4D2D6E45F001053A4E3566354663
:1021C0002D6E05F00105009500BF00BF4FEAB63542
:1021D0008E0855F826008D072E0F0F25B54000E01C
:1021E00058E0A843B2F1904F01D100251EE02E4DDA
:1021F000AA4201D1012519E02C4DAA4201D10225A4
:1022000014E02B4DAA4201D103250FE0294DAA422B
:1022100001D104250AE0284DAA4201D1052505E097
:10222000264DAA4201D1062500E007258E07360F6C
:10223000B5402843224D8E0845F82600214D2868D8
:10224000A0435D6805F4801505B120431D4D28604D
:102250002D1D2868A0435D6805F4001505B12043D5
:10226000184D2D1D2860174D2D1F2868A0435D684F
:1022700005F4003505B12043124D2D1F28602D1F98
:102280002868A0435D6805F4803505B120430D4DF5
:10229000083D2860491C1D68CD40002D7FF41BAF10
:1022A00078BD00000010024000040048000800480B
:1022B000000C0048001000480014004800180048B6
:1022C0000800014008040140024613690B400BB1AD
:1022D000012000E00020704710B5426921EA0203A6
:1022E00002EA010443EA0443836110BD0AB181613B
:1022F00000E08162704700000148006870470000FC
:102300007400002003480068034909780844014923
:1023100008607047740000207C00002010B5002485
:10232000032000F0EBF80F2000F008F808B10124BA
:1023300001E000F047F8204610BD000070B588B0FD
:1023400004460025002600222146192000F094F8BA
:10235000192000F07DF800BF1648006E40F40060C0
:10236000144908660846006E00F40060019000BF42
:1023700000BF02A903A800F08FFE00F0C7FE0546CB
:102380000D48B5FBF0F0461E0C480D49086040F2C0
:10239000E7310B48C160466000210161816001F0B6
:1023A00060FC20B9064801F095FC08B070BD012022
:1023B000FBE700000010024040420F00002C0140EB
:1023C000A020002008B500BF0F48006E40F00100BB
:1023D0000D4908660846006E00F00100009000BF3D
:1023E00000BF00BF0846806D40F0805088650846F9
:1023F000806D00F08050009000BF00BF00220F21D0
:10240000901E00F039F808BD0010024010B50146DA
:102410000846002817DB00F01F0301229A400B4BEF
:10242000440943F8242000BF00BF00BFBFF34F8F13
:1024300000BF00BF00BF00BF00BF00BFBFF36F8F72
:1024400000BF00BF00BF00BF10BD000080E100E082
:102450000146084600280DDB00BF00BF00F01F0347
:1024600001229A4043099B0003F1E023C3F80021B5
:1024700000BF00BF00BF70472DE9F05F80460D46EA
:102480001646002704F0D2FF074639462A4633464F
:1024900001F00700C0F1070ABAF1040F02D94FF0AA
:1024A000040A01E0C0F1070AD14600F1040ABAF1BA
:1024B000070F02D24FF0000A01E0A0F1030AD44650
:1024C0004FF0010A0AFA09FAAAF1010A0AEA020A15
:1024D0000AFA0CFA4FF0010B0BFA0CFBABF1010BF3
:1024E0000BEA030B4AEA0B042146404604F0A6FF20
:1024F00000F000B830BCBDE8C09F000000BF00F095
:102500000702064B19684FF6FF031940044B0B43B3
:1025100043EA0221014B196000BF70470CED00E057
:102520000000FA050246B2F5007F2AD11D48006876
:1025300000F4C060B0F5007F32D01A48006820F483
:10254000C06040F40070174B1860174800683223D1
:102550005843164BB0FBF3F0411C00E0491E1148F4
:10256000406900F48060B0F5806F01D10029F5D199
:102570000C48406900F48060B0F5806F10D10320F2
:1025800070470848006800F4C060B0F5806F07D05D
:102590000448006820F4C06040F48060014B18607B
:1025A0000020EDE7007000408000002040420F0056
:1025B0000248006800F4C0607047000000700040EE
:1025C000F8B504460025FFF797FE064694F8390053
:1025D00000F00200002847D000BF002084F8380037
:1025E00000BF2068006800F0040070B12068006837
:1025F00020F0040021680860606BFFF7BCFC054612
:102600001DB1E06B40F00400E06320688068C0F317
:10261000401030B32068006840F002002168086074
:10262000206C3346012202210090204603F092FDE7
:1026300005465DB902202168C860206C334600223F
:1026400020210090204603F085FD054665B92068ED
:10265000406920F0406021684861012084F8390019
:1026600002E0012084F839002846F8BD2DE9F8433E
:1026700004460D461746FFF73FFE8046A86900B1A5
:1026800000BFE86900B100BF286A00B100BF00BF09
:1026900094F83800012802D10220BDE8F883012017
:1026A00084F8380000BF94F83900012828D10020B0
:1026B000E063022084F839004346002220212046AE
:1026C000009703F047FD0646DEB900222946204662
:1026D00003F0FEFB686A78B94346012202212046D6
:1026E000009703F037FD06465EB902202168C860F6
:1026F000012084F8390004E0012084F8390000E06A
:10270000022600BF002084F8380000BF3046C4E72E
:10271000F8B50446FFF7F0FD06460CB90120F8BDF8
:1027200094F8390050B9002084F83800204600F0B1
:1027300047F841F28831204600F0F9F82068006837
:1027400020F47061A068401E41EA00202168086002
:10275000206C3346002220210090204603F0FAFC32
:10276000054615BB2179E06840EA016021680968E7
:10277000114A1140084321680860208A616941EAD2
:102780000040A1690843216849680C4A1140084388
:10279000216848602068006840F0010021680860F6
:1027A0000020E063012084F8390000BF002084F895
:1027B000380000BF2846B2E7EFFFFF00FEF8E0FF59
:1027C00010B586B00446142101A8FDF7BEFD1849D6
:1027D0002068884229D100BF1648006D40F48070FF
:1027E000144908650846006D00F48070009000BF31
:1027F00000BF00BF0846C06C40F01000C864084627
:10280000C06C00F01000009000BF00BF4FF47C408F
:1028100001900220029000200390032004900A20DF
:10282000059001A90448FFF751FC06B010BD000057
:10283000001000A000100240001000482DE9F84FE1
:1028400004460E4617460025FFF756FD80462068D1
:10285000D0F81890206800F1200A00BF94F83800E2
:10286000012802D1022000F05FB8012084F838006E
:1028700000BF94F8390001284ED10020E063002EFB
:1028800044D0222084F8390020680069401C20636D
:1028900020680069401CE062A6622068406920F060
:1028A000406040F08060216848612068C0F818905E
:1028B00013E04346012206212046009703F04AFC1C
:1028C000054605B10CE09AF80000A16A0870A06AFC
:1028D000401CA062206B401E2063206B0028E8D1C2
:1028E00000BF7DB94346012202212046009703F034
:1028F00031FC054635B902202168C8602046FFF743
:102900005FFE0546012084F8390006E0E06B40F0E8
:102910000800E063012500E0022500BF002084F8E4
:10292000380000BF28469EE718BCBDE8E08F016470
:1029300070472DE9F84304460E4617460025FFF779
:10294000DBFC8046206800F1200900BF94F83800C5
:10295000012802D10220BDE8F883012084F8380064
:1029600000BF94F83900012849D10020E063002E0F
:102970003FD0122084F8390020680069401C606252
:1029800020680069401C2062E6612068406920F0F0
:1029900040602168486113E043460122042120463B
:1029A000009703F0D7FB054605B10CE0E06900781D
:1029B00089F80000E069401CE061606A401E6062C6
:1029C000606A0028E8D100BF7DB943460122022198
:1029D0002046009703F0BEFB054635B9022021686A
:1029E000C8602046FFF7ECFD0546012084F8390059
:1029F00006E0E06B40F00800E063012500E00225FE
:102A000000BF002084F8380000BF2846A3E700007C
:102A10002DE9F84304460025A846208800F400600C
:102A2000B0F5006F30D1606E80B1B0F5800F13D07B
:102A3000B0F5000F03D0B0F5400F15D113E0FB48FF
:102A4000C06840F48030F949C8600FE00021201DC3
:102A500003F0A6FB054609E0002104F1200003F085
:102A600065FC054602E001E0012500BF00BF55B945
:102A7000EE488830006820F44000616E0843EB495E
:102A8000C1F8880000E0A846208800F48050B0F526
:102A9000805F30D1A06E80B1B0F1807F13D0B0F1F3
:102AA000007F03D0B0F1407F15D113E0DF48C0684C
:102AB00040F48030DD49C8600FE00021201D03F0A4
:102AC0006FFB054609E0002104F1200003F02EFC15
:102AD000054602E001E0012500BF00BF55B9D3481B
:102AE0008830006820F04070A16E0843CF49C1F8DB
:102AF000880000E0A846206800F40030B0F5003FF0
:102B000077D14FF00009C948806D012121EA10708A
:102B100078B100BFC548806D40F08050C3498865DA
:102B20000846806D00F08050009000BF00BF4FF05D
:102B30000109BF48006840F48070BD490860FFF794
:102B4000DBFB074606E0FFF7D7FBC01B022801D9D5
:102B5000032505E0B648006800F480700028F2D034
:102B600000BF85BBB1489030006800F44076D6B114
:102B7000D4F88400B04216D0AC489030006820F4FD
:102B80004076AA48D0F8900040F48030A749C1F8B8
:102B900090000846D0F8900020F48030C1F89000F2
:102BA0000846C0F8906006F00100A8B1FFF7A4FB4A
:102BB000074609E0FFF7A0FBC01B41F288318842BD
:102BC00002D9032507E017E098489030006800F02C
:102BD00002000028EED000BF65B99448903000682C
:102BE00020F44070D4F8841008439049C1F8900054
:102BF00003E00CE0A84600E0A846B9F1010F05D1BA
:102C00008A48806D20F080508849886500BF207810
:102C100000F0010048B185488830006820F00300CA
:102C2000A16B08438149C1F88800207800F00200B8
:102C3000022809D17D488830006820F00C00E16B43
:102C400008437A49C1F88800207800F0040004287D
:102C500009D176488830006820F03000216C0843A4
:102C60007249C1F88800207800F00800082809D1CE
:102C70006E488830006820F0C000616C08436B49E2
:102C8000C1F88800207800F01000102809D16748AA
:102C90008830006820F44070A16C08436349C1F893
:102CA0008800207800F02000202809D15F48883073
:102CB000006820F44060E16C08435C49C1F888007A
:102CC000208800F40070B0F5007F09D157488830A3
:102CD000006820F44020E16D08435449C1F88800A1
:102CE000208800F48060B0F5806F09D14F488830AB
:102CF000006820F44010216E08434C49C1F8880058
:102D0000207800F04000402809D148488830006809
:102D100020F44050216D08434449C1F888002078D0
:102D200000F08000802809D140488830006820F4F5
:102D30004040616D08433D49C1F88800208800F497
:102D40008070B0F5807F09D138488830006820F461
:102D50004030A16D08433549C1F88800208800F44F
:102D60000050B0F5005F1FD130488830006820F077
:102D70004060E16E08432D4988310860E06EB0F193
:102D8000006F06D12948C06840F480102749C86008
:102D90000AE0E06EB0F1806F06D10121201D03F042
:102DA000FFF9054605B1A846206800F40020B0F5FB
:102DB000002F1FD11D488830006820F04060216F2F
:102DC00008431A4988310860206FB0F1006F06D1BE
:102DD0001648C06840F480101449C8600AE0206FAB
:102DE000B0F1806F06D10121201D03F0D9F905460D
:102DF00005B1A846206800F48020B0F5802F24D1CA
:102E00000A488830006820F04060616F0843074935
:102E100088310860606FB0F1006F0BD10348C06863
:102E200040F480100149C8600FE00000001002402B
:102E300000700040606FB0F1806F06D10121201D4D
:102E400003F0AEF9054605B1A846208800F480409D
:102E5000B0F5804F1FD12248006820F04050A16F8C
:102E600008431F490860A06FB0F1805F07D10221BD
:102E7000201D03F095F905466DB1A8460BE0A06F43
:102E8000B0F1005F07D1022104F1200003F04EFAF7
:102E9000054605B1A846208800F40040B0F5004F73
:102EA00009D10F48006820F08040E16F08430C49C9
:102EB0008839C1F88800206800F48030B0F5803F80
:102EC0000AD10748006820F00040D4F88010084379
:102ED00003498839C1F888004046BDE8F8830000FE
:102EE000881002402DE9F04104460D4614B9012036
:102EF000BDE8F0816348006800F00700A8420ED2E8
:102F00006048006820F0070028435E4908600846D2
:102F1000006800F00700A84201D00120E8E720780F
:102F200000F0020002280ED15749A068896801F01C
:102F3000F001884207D95448806820F0F000A16869
:102F4000084351498860207800F0010078B3606838
:102F5000032806D14C48006800F00070D8B9012061
:102F6000C6E76068022806D14748006800F40030D0
:102F700088B90120BCE7606830B94348006800F0B8
:102F8000020040B90120B3E73F48006800F48060C8
:102F900008B90120ACE73C48806820F00300616874
:102FA000084339498860FFF7A7F9064609E010E0B1
:102FB000FFF7A2F9801B41F28831884201D9032032
:102FC00096E73148806800F00C006168B0EB810F33
:102FD000EED1207800F0020002280ED12A49A06824
:102FE000896801F0F001884207D22748806820F004
:102FF000F000A1680843244988602248006800F076
:103000000700A8420ED91F48006820F00700284397
:103010001C4908600846006800F00700A84201D07B
:10302000012065E7207800F00400042807D1164845
:10303000806820F4E060E1680843134988602078E4
:1030400000F00800082808D10F48806820F460507C
:10305000216940EAC1000C49886000F069F80A491A
:103060008968C1F30311094A515C01F01F01C8408E
:103070000749086007480068FFF760F907463846C7
:1030800036E700000020024000100240F05802081D
:1030900080000020780000200F2202600D4A926814
:1030A00002F0030242600B4A926802F0F002826072
:1030B000084A926802F4E062C260064A926802F42A
:1030C0006052D2080261044A126802F007020A60E4
:1030D00070470000001002400020024001480068D4
:1030E000704700008000002000B5FFF7F7FF05499A
:1030F0008968C1F30221044A515C01F01F01C840F4
:1031000000BD0000001002400059020800B5FFF7A2
:10311000E5FF05498968C1F3C221044A515C01F009
:103120001F01C84000BD0000001002400059020805
:10313000F0B500230020DFF8D4C0DCF808C00CF0A4
:103140000C01DFF8C8C0DCF80CC00CF0030719B1A3
:103150000C291ED1012F1CD1DFF8B0C0DCF800C053
:103160000CF0080CBCF1000F06D1DFF8A0C0DCF8B1
:1031700094C0CCF3032305E0DFF890C0DCF800C076
:10318000CCF30313DFF888C05CF8233041B918464C
:1031900006E0042901D11F4802E0082900D11E4899
:1031A0000C2932D1DFF864C0DCF80CC00CF0030449
:1031B000012C09D0022C02D0032C04D101E0154AC5
:1031C00004E0154A02E000BF1A4600BF00BFDFF866
:1031D0003CC0DCF80CC0CCF3021C0CF10106DFF89B
:1031E0002CC0DCF80CC0CCF3062C0CFB02FCBCFBA6
:1031F000F6F2DFF818C0DCF80CC0CCF3416C0CF12F
:10320000010C4FEA4C05B2FBF5F0F0BD0010024096
:10321000085902080024F40000127A002DE9F8434E
:10322000044614B90120BDE8F883F948806800F02D
:103230000C06F748C06800F00307207800F0100083
:10324000102877D11EB10C2E76D1012F74D1F04801
:10325000006800F0020018B1A06908B90120E2E797
:10326000EB48216A006800F0080020B1E8480068D7
:1032700000F0F00005E0E6489430006800F470606B
:10328000000981421FD9206A03F002F908B1012028
:10329000C9E700BFDE48006840F00800DC4908606C
:1032A0000846006820F0F000216A0843D849086009
:1032B00000BF0846406820F47F40E16940EA0120F1
:1032C000D34948601FE000BFD148006840F00800C3
:1032D000CF4908600846006820F0F000216A0843E2
:1032E000CB49086000BF0846406820F47F40E16990
:1032F00040EA0120C64948602EB9206A03F0C8F8A8
:1033000008B101208FE7FFF713FFC1498968C1F3B6
:103310000311C04A515C01F01F01C840BE4908605A
:10332000BE480068FFF70AF88046B8F1000F4ED09B
:10333000404678E74BE0FFE7A06980B3B4480068F7
:1033400040F00100B2490860FEF7D6FF054606E0EE
:10335000FEF7D2FF401B022801D9032063E7AC48E7
:10336000006800F002000028F2D000BFA848006802
:1033700040F00800A64908600846006820F0F00008
:10338000216A0843A249086000BF0846406820F44B
:103390007F40E16940EA01209D49486017E0FFE76E
:1033A0009B48006820F0010099490860FEF7A4FFDF
:1033B000054606E0FEF7A0FF401B022801D90320C6
:1033C00031E79348006800F002000028F2D120782D
:1033D00000F0010000285CD0082E03D00C2E0AD18A
:1033E000032F08D18A48006800F4003088B3606871
:1033F00078BB012017E700BF6068B0F5803F06D1B9
:103400008348006840F48030814908601AE06068B1
:10341000B0F5A02F0BD17E48006840F480207C4995
:1034200008600846006840F4803008600AE0784888
:10343000006820F48030764908600846006820F46F
:103440008020086000BF606890B1FEF755FF054618
:1034500007E01EE0FEF750FF401B642801D903205F
:10346000E1E66B48006800F400300028F2D010E07C
:10347000FEF742FF054606E0FEF73EFF401B6428CC
:1034800001D90320CFE66248006800F4003000282C
:10349000F2D1207800F00200022852D1042E03D08D
:1034A0000C2E14D1022F12D15948006800F480600C
:1034B00018B1E06808B90120B5E65548406820F029
:1034C000F850217C40EA01605149486039E0E068E9
:1034D00000B34F48006840F480704D490860FEF723
:1034E0000BFF054606E0FEF707FF401B022801D947
:1034F000032098E64648006800F480600028F2D077
:103500004348406820F0F850217C40EA016040497F
:10351000486016E03E48006820F480703C4908602E
:10352000FEF7EAFE054606E0FEF7E6FE401B02282F
:1035300001D9032077E63648006800F4806000284F
:10354000F2D1207800F00800082836D16069D0B1A7
:103550002F489430006840F001002D49C1F89400D4
:10356000FEF7CAFE054606E0FEF7C6FE401B02282F
:1035700001D9032057E626489430006800F0020085
:103580000028F1D019E022489430006820F00100B2
:103590001F49C1F89400FEF7AFFE054606E0FEF7AE
:1035A000ABFE401B022801D903203CE618489430AA
:1035B000006800F002000028F1D1207800F004003B
:1035C000042872D14FF000091148806D00F080503E
:1035D00078B900BF0E48806D40F080500C49886576
:1035E0000846806D00F08050009000BF00BF4FF093
:1035F00001090B48006800F4807000BB08480068AF
:1036000040F4807006490860FEF776FE054610E03B
:1036100000100240F05802088000002078000020CE
:1036200000700040FEF768FE401B022801D903200D
:10363000F9E5B048006800F480700028F2D000BFBF
:10364000A068012808D1AC48006840F00100AA49F0
:103650009039C1F8900021E0A06805280FD1A64854
:10366000006840F00400A4499039C1F89000084671
:10367000D0F8900040F00100C1F890000EE09E48A4
:10368000006820F001009C499039C1F8900008467C
:10369000D0F8900020F00400C1F8900000BFA068AE
:1036A000A0B1FEF729FE054609E02EE0FEF724FE54
:1036B000401B41F28831884201D90320B3E58E488E
:1036C000006800F002000028F0D012E0FEF714FEBF
:1036D000054608E0FEF710FE401B41F288318842A3
:1036E00001D903209FE58448006800F0020000280B
:1036F000F0D1B9F1010F07D17F489038806D20F0EB
:1037000080507D499039886500BFA06A00287DD02F
:10371000A06A02287BD178489038C76807F0030177
:10372000E06A814228D107F07001206B401EB1EBA6
:10373000001F21D107F4FE41606BB1EB002F1BD1BC
:1037400007F40031A06B072801D0012000E0002021
:10375000814211D107F4C001A08F0122C2EB5000B9
:10376000B1EB405F08D107F0C0614020005DC2EBC3
:103770005000B1EB406F6CD00C2E68D05E48903892
:10378000006800F0806028B95B489038006800F05D
:10379000805008B1012046E557489038006820F075
:1037A0008070554990390860FEF7A6FD054606E091
:1037B000FEF7A2FD401B022801D9032033E54E4845
:1037C0009038006800F000700028F1D1D4E90B10A7
:1037D000401E41EA0011606B41EA0021A08F0122E6
:1037E000C2EB500041EA40514020005DC2EB500066
:1037F00041EA4061A06B000941EA40403E499039EE
:10380000C9683E4A114008433B4901E05CE046E09C
:103810009039C8600846006840F08070086008462B
:10382000C06840F08070C860FEF766FD054606E09F
:10383000FEF762FD401B022801D90320F3E42E4865
:103840009038006800F000700028F1D04FE00120AF
:10385000E9E429489038006800F00070A0BB2648D1
:103860009038006840F0807023499039086008461D
:10387000C06840F08070C860FEF73EFD054606E077
:10388000FEF73AFD401B022801D90320CBE41A4879
:103890009038006800F000700028F1D027E00C2E6E
:1038A00023D015489038006820F080701249903974
:1038B0000860FEF721FD054607E0FEF71DFD401BF1
:1038C000022802D90320AEE411E00B4890380068CA
:1038D00000F000700028F0D107489038C06808490F
:1038E000084005499039C86001E001209BE40020B0
:1038F00099E4000000700040901002408C809DF917
:10390000FCFFEEFE70B504460CB9012070BD606A84
:1039100038B96068B0F5827F00D105E00021E1612F
:1039200002E00021216161610021A16294F85D0043
:1039300028B9002084F85C00204600F05BF80220E3
:1039400084F85D002068006820F04000216808606D
:10395000E068B0F5E06F01D9002501E04FF4805533
:10396000E068B0F5706F05D0E068B0F5E06F01D0A9
:103970000021A162A08800F48270218901F4044131
:103980000843217C01F002010843217D01F001017F
:103990000843218B01F400710843217F01F03801B5
:1039A00008432021095D01F080010843218D01F4C5
:1039B00000510843216808600421A06901EA104011
:1039C00094F8241001F01001084394F8341001F029
:1039D00008010843A18901F47061084305F480518E
:1039E00008432168486000202066012084F85D00BB
:1039F00000208BE710B586B00446142101A8FCF71F
:103A0000A4FC17492068884228D100BF1548806D62
:103A100040F40040134988650846806D00F400407A
:103A2000009000BF00BF00BF0846C06C40F002001D
:103A3000C8640846C06C00F00200009000BF00BFE0
:103A4000282001900220029000200390032004907F
:103A50000620059001A90448FEF738FB06B010BD0A
:103A6000003C004000100240000400482DE9F84FDF
:103A70000446884616461D464FF0000A00BF94F8DB
:103A80005C00012802D1022000F0E5B8012084F892
:103A90005C0000BFFEF730FC0746B14694F85D00BD
:103AA000012802D04FF0020ACBE0B8F1000F00D09D
:103AB00016B94FF0010AC4E0032084F85D0000202D
:103AC0002066C4F83880A687E6872064A4F84400FE
:103AD000A4F846002065E064A068B0F5004F0BD163
:103AE0002068006820F040002168086020680068B5
:103AF00040F48040216808602068006800F04000C1
:103B0000402805D02068006840F040002168086027
:103B1000E068B0F5E06F2FD9606810B1B9F1010F1E
:103B200009D1A06B00882168C860A06B801CA063CD
:103B3000E08F401EE0871BE02068806800F00200F4
:103B400002280AD1A06B00882168C860A06B801C85
:103B5000A063E08F401EE0870AE0FEF7CDFBC01BAC
:103B6000A84201D3681C00B915B94FF0030A68E0F8
:103B7000E08F0028E0D14AE0606810B1B9F1010F90
:103B800017D1E08F01280AD9A06B00882168C8608E
:103B9000A06B801CA063E08F801EE08709E0A06B13
:103BA000007821680873A06B401CA063E08F401E62
:103BB000E08729E02068806800F00200022818D120
:103BC000E08F01280AD9A06B00882168C860A06B2B
:103BD000801CA063E08F801EE08715E0A06B00785A
:103BE00021680873A06B401CA063E08F401EE08733
:103BF0000AE0FEF781FBC01BA84201D3681C00B994
:103C000015B94FF0030A1CE0E08F0028D2D13A46E4
:103C10002946204602F098FC08B120202066A068C2
:103C200050B900BF002000902068C0680090206854
:103C30008068009000BF00BF206E08B14FF0010AFD
:103C400000BF012084F85D0000BF002084F85C0004
:103C500000BF504618E718BCBDE8E08F70477047BA
:103C6000704710B504460CB9012010BD94F83D0012
:103C700028B9002084F83C00204600F029F80220F2
:103C800084F83D00211D206802F036FE012084F8F2
:103C9000480000BF84F83E0001213F20015540202C
:103CA000015541200155422001554320015500BFD7
:103CB00000BF012084F844004520015546200155ED
:103CC0004720015500BF012084F83D000020CCE7CB
:103CD00070470000014691F83D00012801D0012005
:103CE0007047022081F83D000868C06840F001007C
:103CF0000B68D8601A4B0868984217D00868B0F172
:103D0000804F13D0174B086898420FD0164B0868A5
:103D100098420BD0154B0868984207D0144B08689E
:103D2000984203D0134B0868984210D10868806805
:103D3000114B00EA0302062A0FD0B2F5803F0CD0E7
:103D40000868006840F001000B68186005E008682A
:103D5000006840F001000B6818600020C0E7000018
:103D6000002C01400004004000080040000C00400E
:103D7000003401400040014007000100704710B5C9
:103D8000044620680069C0F34000D8B12068C068CC
:103D9000C0F34000B0B16FF002002168086101205B
:103DA00020772068806900F0030018B12046FFF7F3
:103DB000E5FF05E0204600F0BEF8204600F0BCF824
:103DC0000020207720680069C0F38000D8B1206807
:103DD000C068C0F38000B0B16FF0040021680861D2
:103DE000022020772068806900F4407018B12046D6
:103DF000FFF7C4FF05E0204600F09DF8204600F0E4
:103E00009BF80020207720680069C0F3C000D8B17B
:103E10002068C068C0F3C000B0B16FF0080021682E
:103E20000861042020772068C06900F0030018B101
:103E30002046FFF7A3FF05E0204600F07CF820466F
:103E400000F07AF80020207720680069C0F30010A5
:103E5000D8B12068C068C0F30010B0B16FF0100096
:103E600021680861082020772068C06900F440704C
:103E700018B12046FFF782FF05E0204600F05BF80E
:103E8000204600F059F8002020772068006900F0F3
:103E9000010058B12068C06800F0010030B16FF037
:103EA000010021680861204600F048F82068006998
:103EB000C0F3C01058B12068C068C0F3C01030B162
:103EC0006FF08000216808612046FFF7C8FE206877
:103ED0000069C0F3002058B12068C068C0F3C0106A
:103EE00030B16FF48070216808612046FFF7B6FE9C
:103EF00020680069C0F3801058B12068C068C0F322
:103F0000801030B16FF0400021680861204600F059
:103F100021F820680069C0F3401058B12068C068DB
:103F2000C0F3401030B16FF02000216808612046D6
:103F3000FFF796FE10BD70477047000010B50446AD
:103F400003492068884201D1FEF7DCF910BD00006A
:103F5000002C014070477047704770472DE9F047CB
:103F600004462068C569206806682068876840F6AE
:103F70000F0005EA0009B9F1000F0CD105F020008F
:103F800048B106F0200030B1606E10B12046616E7D
:103F90008847BDE8F087B9F1000F7DD007F0010038
:103FA00018B9BE4830400028F7D005F0010058B1DC
:103FB00006F4807040B1012021680862D4F88000C6
:103FC00040F00100C4F8800005F0020058B107F08D
:103FD000010040B1022021680862D4F8800040F05E
:103FE0000400C4F8800005F0040058B107F0010097
:103FF00040B1042021680862D4F8800040F002003B
:10400000C4F8800005F0080070B106F0200010B977
:1040100007F0010040B1082021680862D4F8800050
:1040200040F00800C4F8800005F4006060B106F0BC
:10403000806048B14FF4006021680862D4F88000C5
:1040400040F02000C4F88000D4F8800000284BD055
:1040500005F0200038B106F0200020B1606E10B1EC
:104060002046616E8847D4F880A02068806800F000
:104070004000402802D00AF0280070B3204602F029
:1040800062FD2068806800F04000402821D100BF18
:1040900000BF2168083100E027E051E8001F21F04F
:1040A00040002168083141E80002002AF1D100BF38
:1040B000206F50B17A48216F8863206FFDF788FF29
:1040C00090B1206F816B88470EE02046FFF745FFD7
:1040D0000AE02046FFF741FF06E0FFE72046FFF732
:1040E0003CFF0020C4F8800053E7206E01286FD108
:1040F00005F0100000286BD006F010000028FAD060
:104100001020216808622068806800F04000402884
:104110005FD1206F006840681FFA80F8B8F1000F87
:1041200055D0B4F85800404551DDA4F85A80206FAE
:104130000068006800F02000E8BB00BF00BF2168F5
:1041400051E8001F21F48070226842E80001002934
:10415000F5D100BF00BF00BF2168083151E8001F42
:1041600021F001002168083141E80002002AF3D162
:1041700000BF00BF00BF2168083151E8001F21F0D7
:1041800040002168083141E80002002AF3D100BF55
:104190002020E0670020206600BF00BF216851E8B2
:1041A000001F21F01000226842E800010029F5D12B
:1041B00000BF206F00E001E0FDF7DDFEB4F858001D
:1041C000B4F85A20801A81B22046FFF7C4FEE0E618
:1041D0003EE034F8580F6188401A1FFA80F8608872
:1041E000583CA0B3B8F1000F31D000BF00BF216828
:1041F00051E8001F21F49070226842E80001002974
:10420000F5D100BF00BF00BF2168083151E8001F91
:1042100021F001002168083141E80002002AF3D1B1
:1042200000BF2020E06700202066606600BF00BF5E
:10423000216851E8001F21F01000226842E80001C7
:104240000029F5D100BF41462046FFF784FEA0E6D5
:1042500005F4801050B107F4800038B14FF480109D
:10426000216808622046FFF777FE92E605F080009D
:1042700040B106F0800028B1A06E10B12046A16EBA
:10428000884786E605F0400030B106F0400018B1DE
:10429000204602F08AFC7CE600BF7AE6200100049A
:1042A0002F6B000810B504460CB9012010BDA069A1
:1042B00000B100E000BFA06F28B9002084F87400AE
:1042C000204600F029F82420A0672068006820F02C
:1042D000010021680860204602F07EFC012800D120
:1042E000E4E7606A10B1204602F06CFB2068406889
:1042F00020F49040216848602068806820F02A00FF
:10430000216888602068006840F00100216808602A
:10431000204602F0D3FBC9E710B5A8B0044614212B
:1043200023A8FCF712F8882101A8FCF70EF84249EF
:10433000206888423DD10120019000200F9001A803
:10434000FEF766FB08B1FDF713FE00BF3B48006EA9
:1043500040F48040394908660846006E00F4804009
:10436000009000BF00BF00BF0846C06C40F00100D5
:10437000C8640846C06C00F00100009000BF00BF98
:104380004FF4C06023900220249000202590032049
:1043900026900720279023A94FF09040FDF796FE26
:1043A000002205212520FEF767F82520FEF750F8AA
:1043B0003FE02349206888423BD102200190002041
:1043C000109001A8FEF724FB08B1FDF7D1FD00BF56
:1043D0001A48806D40F40030184988650846806DA1
:1043E00000F40030009000BF00BF00BF0846C06C62
:1043F00040F00100C8640846C06C00F00100009065
:1044000000BF00BF0C2023900220249000202590A4
:10441000032026900720279023A94FF09040FDF716
:1044200055FE002205212620FEF726F82620FEF75D
:104430000FF828B010BD0000003801400010024005
:10444000004400402DE9F84F04460E4617469946B1
:10445000A06F20285DD106B117B9012000F05BB82C
:1044600000BF94F87400012801D10220F6E7012072
:1044700084F8740000BF0020503420632120A06223
:10448000FDF73AFF824627806780503CA068B0F570
:10449000805F04D1206910B90025B04602E035469E
:1044A0004FF0000800BF002084F8740000BF1DE03A
:1044B0005346002280212046CDF8009002F043FDB3
:1044C00008B10320CAE745B9B8F80000C0F30800F6
:1044D0002168088508F1020803E02878216808852A
:1044E0006D1CB4F85200401EA4F85200B4F85200FB
:1044F0000028DDD15346002240212046CDF800900F
:1045000002F021FD08B10320A8E72020A0670020C9
:10451000A4E70220A2E718BCBDE8E08F704700BF07
:10452000FEE7000010B5002240211148FDF7DEFE35
:104530001048006820F00C000E490860084600682A
:1045400040F004000860002202210A48FDF7CEFE78
:1045500000F012F8012240210548FDF7C7FE00F0E7
:104560000BF8002240210248FDF7C0FE10BD0000FC
:10457000000C00480008004810B50020FDF756FD6B
:1045800010BD000000B587B000BF1E48C06C40F0F1
:1045900004001C49C8640846C06C00F00400019087
:1045A00000BF00BF00BF0846C06C40F00800C864F0
:1045B0000846C06C00F00800019000BF00BF022058
:1045C00002900120039004900220059002A90E4859
:1045D000FDF77CFD40200290012003900490022012
:1045E000059002A90948FDF771FD01220221064844
:1045F000FDF77CFE012240210448FDF777FE07B05D
:1046000000BD00000010024000080048000C0048F7
:1046100010B5002240211148FDF768FE10480068DF
:1046200020F00C000E4908600846006840F00400C5
:104630000860012202210A48FDF758FEFFF79CFF9F
:10464000012240210548FDF751FEFFF795FF0022AA
:1046500040210248FDF74AFE10BD0000000C004852
:104660000008004870B5054600241748006820F08F
:104670000C0015490860084600680860002618E02C
:10468000002240211148FDF731FEFFF775FF01229E
:1046900040210E48FDF72AFE6006040E02210A485A
:1046A000FDF712FE08B1601CC4B2FFF765FF701C75
:1046B000C6B2082EE4DB15B9FFF7AAFF01E0FFF749
:1046C00031FF204670BD000000080048000C004883
:1046D00070B504461948006820F00C0017490860BE
:1046E0000846006840F00400086000224021144899
:1046F000FDF7FCFD00251EE0E00928B101220221A2
:104700000E48FDF7F3FD04E0002202210B48FDF7FF
:10471000EDFD6006040E012240210948FDF7E6FD8B
:10472000FFF72AFF002240210548FDF7DFFDFFF7D4
:1047300023FF681CC5B2082DDEDB70BD00080048F1
:10474000000C004810B51248006820F00C00104919
:1047500008600846006840F0040008600122022159
:104760000B48FDF7C3FD012240210A48FDF7BEFDBD
:10477000FFF702FF002202210548FDF7B7FDFFF712
:10478000FBFE002240210348FDF7B0FD10BD0000F4
:1047900000080048000C004810B51248006820F0DE
:1047A0000C00104908600846006840F004000860EA
:1047B000002202210B48FDF799FD012240210A4801
:1047C000FDF794FDFFF7D8FE012202210548FDF711
:1047D0008DFDFFF7D1FE002240210348FDF786FD45
:1047E00010BD000000080048000C004810B500246F
:1047F0001648006820F00C0014490860084600685C
:104800000860012202211148FDF770FDFFF7B4FE98
:10481000012240210E48FDF769FDFFF7ADFE08E0DB
:10482000601C84B2B4F57A7F03DDFFF7B5FF012089
:1048300010BD02210548FDF747FD0028F0D10022F8
:1048400040210348FDF752FD0020F1E70008004831
:10485000000C00482DE9F04104460D4616461F465F
:104860002A2000F00FFB201200F01AFBE0B200F04B
:1048700017FB301200F014FBF0B200F011FB2B20FC
:1048800000F000FB281200F00BFBE8B200F008FB80
:10489000381200F005FBF8B200F002FB2C2000F00B
:1048A000F1FABDE8F0810000F8B50546002000905F
:1048B00028128DF80000E8B28DF80100EF231A46A7
:1048C00000210846FFF7C6FF00240DE09DF8000018
:1048D0000F4901F814009DF80100012101EB44018A
:1048E0000B4A5054601C84B2B4F5107FEEDB0122F9
:1048F00010210848FDF7FAFC002606E04FF490610D
:10490000034800F016F9701C86B2642EF6DBF8BD81
:10491000F80400200004004810B5002280217D48E2
:10492000FDF7E4FC002280217A48FDF7DFFC00223D
:1049300080217948FDF7DAFC002240217648FDF716
:10494000D5FC7820FDF772FB012240217248FDF76B
:10495000CDFC002280216F48FDF7C8FC0022802199
:104960006D48FDF7C3FC002240216B48FDF7BEFCFB
:104970007820FDF75BFB012240216748FDF7B6FC7C
:104980007820FDF753FB112000F07CFA7820FDF72A
:104990004DFB362000F076FA002000F081FA3A2034
:1049A00000F070FA652000F07BFAB22000F06AFA9D
:1049B0000C2000F075FA0C2000F072FA002000F0D4
:1049C0006FFA332000F06CFA332000F069FAB72058
:1049D00000F058FA722000F063FABB2000F052FA9F
:1049E0003D2000F05DFAC02000F04CFA2C2000F0D1
:1049F00057FAC22000F046FA012000F051FAC32015
:104A000000F040FA192000F04BFAC42000F03AFA06
:104A1000202000F045FAC62000F034FA0F2000F004
:104A20003FFAD02000F02EFAA42000F039FAA1209D
:104A300000F036FAE02000F025FAD02000F030FA3D
:104A4000042000F02DFA0D2000F02AFA112000F0C9
:104A500027FA132000F024FA2B2000F021FA3F203F
:104A600000F01EFA542000F01BFA4C2000F018FA57
:104A7000182000F015FA0D2000F012FA0B2000F0BB
:104A80000FFA1F2000F00CFA232000F009FAE120B1
:104A900000F0F8F9D02000F003FA042000F000FA4A
:104AA0000C2000F0FDF9112000F0FAF9132000F0BD
:104AB000F7F92C2000F0F4F93F2000F0F1F9442040
:104AC00000F0EEF9512000F0EBF92F2000F0E8F9AA
:104AD0001F2000F0E5F91F2000F0E2F9202000F08F
:104AE000DFF9232000F0DCF9212000F0CBF92920A8
:104AF00000F0C8F9EF231A4600210846FFF7AAFE86
:104B00004FF6FF70FFF7D0FE012280210248FDF72B
:104B1000EDFB10BD000C00480004004810B5024633
:104B2000012000E050430B1EA1F10104E1B2F9D1D4
:104B300010BD2DE9F04105460E464FF6FF70B6FB5D
:104B4000F0F7002416E0BC420CD14FF6FF70B6FB24
:104B5000F0F100FB1168C4EB04414819414601F033
:104B6000E5FC06E0C4EB044148194FF6FF7101F083
:104B7000DDFC641CBC42E6D9BDE8F0812DE9FE4FA6
:104B800082468B4616461C46A6F12000C6B204EBB0
:104B9000D4714910C1F1F001514503DBC4F1F001BA
:104BA000594501DA00F0F2B804EBD4700AEB60006A
:104BB000401E82B20BEB0400401E83B259465046A1
:104BC0000094FFF747FE102C01D0202C4ED1204638
:104BD000E31704EB5373DB1021464FEAE47C04EB4C
:104BE0005C7C4FEAEC0CA4EBCC0CBCF1000F02D0C7
:104BF0004FF0010C01E04FF0000C6344224604EB3F
:104C0000D27C4FEA6C0C03FB0CF303F0FF09002588
:104C100029E0102C04D1574800EB0610475D07E04F
:104C2000202C04D1544800EBC610475D00E0B9E7E2
:104C30004FF0000812E007F0800018B14F480088DC
:104C4000029002E04E4800880290029800F036F987
:104C50007806070E08F1010000F0FF08B8F1080F10
:104C6000E9DB681CC5B24D45D3DB80E00C2C45D197
:104C70002046E31704EB5373DB1021464FEAE47C34
:104C800004EB5C7C4FEAEC0CA4EBCC0CBCF1000F09
:104C900002D04FF0010C01E04FF0000C63442246BB
:104CA00004EBD27C4FEA6C0C03FB0CF303F0FF091E
:104CB000002520E006EB4600324901EB8000475D0D
:104CC0004FF0000812E007F0800018B12B48008870
:104CD000029002E02A4800880290029800F0EEF864
:104CE0007806070E08F1010000F0FF08B8F1060F82
:104CF000E9DB681CC5B24D45DCDB38E0182C36D149
:104D00002001C11700EB5171C1F3C70900252CE048
:104D100006EB46001C4901EB0010475D284605EBF9
:104D2000D0714910A5EB410111B90820019001E0B3
:104D3000042001904FF0000812E007F0800018B145
:104D40000E480088029002E00D4800880290029808
:104D500000F0B4F87806070E08F1010000F0FF0833
:104D600001988045E9DB681CC5B24D45D0DB00BF2A
:104D700018E7000080B1000840C9000808000020C2
:104D80000A0000200CAD000870B700081EBCBDE88A
:104D9000E08F2DE9FF5F074691461E460E9D4FF0BE
:104DA000000A002435E0301B401EC1B20A20FFF784
:104DB000B5FEB9FBF0F00A21B0FBF1F201FB1208DD
:104DC000BAF1000F14D1701EA04211DDB8F1000F2E
:104DD0000CD1AB4605EBDB71491001FB047188B2C5
:104DE0002B4620220199FFF7C9FE10E04FF0010A7F
:104DF000AB4605EBDB71491001FB047188B208F189
:104E00003001CAB22B460199FFF7B8FE00BF601C03
:104E1000C4B2B442C7DB00F000B83FBCBDE8C09FDD
:104E20002DE9F04704460D4690469946DDE90867AE
:104E300004F0FF0A08EB04001FFA80F809EB0500F4
:104E40001FFA80F914E0444502DB5446A81985B2E4
:104E50004D4500DB12E03A78334629462046FFF7FD
:104E60008DFE304606EBD07104EB61018CB27F1CE5
:104E700038787E2802DC38782028E4DA00BFBDE8E4
:104E8000F087000001B5002210210448FDF72EFA3A
:104E900001216846FFF74DFE08BD000000040048F0
:104EA00001B5012210210448FDF720FA01216846CE
:104EB000FFF73FFE08BD00000004004838B5044677
:104EC0000020009020128DF80000E0B28DF8010063
:104ED000012210210348FDF709FA02216846FFF775
:104EE00028FE38BD0004004810B50446207B012888
:104EF00002D1206804F0DAF9002020606060A06030
:104F0000207310BD0246002301230DE002F07F0054
:104F10000870D2092AB1087840F080000870491C56
:104F200001E0184670475B1C042BEFDD4FF0FF30AB
:104F3000F8E770B504460E460025206898B90120B0
:104F40002073304604F04EFA20602068E0B1002063
:104F50006060A66003E00020216848556D1CA068D1
:104F6000A842F8D810E00220207303E00020216856
:104F700048556D1CA068A842F8D800206060A06861
:104F8000B04201D20020206070BD00002DE9FF4F2B
:104F900083B082468B469146159C002500200290E6
:104FA0000F2701904846FBF7F7F90FFA80F8B9F19F
:104FB000000F03D1012007B000F038B908F102005A
:104FC000384487B2109808B145F00205129878B1BC
:104FD00045F004051298FBF7DFF9C0B20290139870
:104FE000FBF7DAF901460298001D0844384487B2FD
:104FF000119820B1012804D0022808D104E000BF94
:1050000007E045F00C0504E045F0140501E002203E
:10501000D1E700BF149808B145F02405BAF1000F9C
:1050200002D0BBF1000F01D10320C4E745F0C00559
:105030005046FBF7B1F906465846FBF7ADF9304448
:10504000001D384487B239462046FFF772FF2068BA
:1050500008B90420AFE739462068FBF776F910213C
:105060006268501C606020688154D4E90023D11824
:10507000781FFFF747FF00B201900198002804DA7B
:105080002046FFF731FF052095E761680198084445
:10509000606000216268501C6060206881540421B7
:1050A0006268501C6060206881544D216268501C09
:1050B00060602068815451216268501C60602068E3
:1050C000815454216268501C606020688154626879
:1050D000501C60602068815404216268501C60602C
:1050E000206881546168481C6060206845540698B7
:1050F000010A6268501C6060206881540698C1B241
:105100006268501C606020688154C8F3072162689F
:10511000501C6060206881546268501C6060206888
:1051200000F80280D4E90012881842464946FBF78D
:105130003AF960684044606005F00400B8B30026A6
:10514000139808B938A013901298FBF725F986B286
:10515000310A6268501C6060206881546268501C8B
:10516000606020688654D4E900128818324612998B
:10517000FBF719F96068304460601398FBF70CF98D
:1051800086B2310A6268501C60602068815462688F
:10519000501C606020688654D4E90012881832469A
:1051A0001399FBF700F960683044606000BF05F0B8
:1051B0008000C8B15046FBF7EFF886B2310A62684A
:1051C000501C6060206881546268501C60602068D8
:1051D0008654D4E90012881832465146FBF7E3F8AA
:1051E00060683044606000BF05F04000C8B15846B8
:1051F000FBF7D2F886B2310A6268501C6060206802
:1052000081546268501C606020688654D4E90012A2
:10521000881832465946FBF7C6F86068304460602B
:1052200000BF0020C7E600000000000030BCBDE861
:10523000C08F2DE9FF4F83B0834617469946139CD4
:10524000002500260020029001908046BBF1000F4F
:1052500003D1012007B000F0C8B800260AE0049886
:10526000805D232803D00498805D2B2801D1022083
:10527000F0E7761C0498805D0028F0D148F03008F3
:10528000119808B148F0010806EB0900851C109838
:1052900020B1012804D002280AD105E000BF09E0AE
:1052A00048F00208AD1C05E048F00408AD1C01E020
:1052B0000320CFE700BF8FB33878022821D14FF009
:1052C000000A00BF50460AF1010A385C7D28F9D176
:1052D000AAF1030A0AF1070002900298A9EB000A5A
:1052E000E81CA0EB0A012046FFF723FE206808B95E
:1052F0000420AFE7EA1CA2EB0A012068FBF725F8BF
:1053000019E0691D2046FFF714FE206808B9042043
:10531000A0E7691D2068FBF718F80CE0FFE7691D9E
:105320002046FFF706FE206808B9042092E7691DB1
:105330002068FBF70AF86168481C6060206800F884
:105340000180D4E9000281182846FFF7DBFD0190B7
:105350000198002804DA2046FFF7C6FD052079E70A
:105360006168019808446060C6F307216268501CB8
:105370006060206881546268501C606020688654B8
:10538000D4E90012881832460499FBF70CF86068DB
:1053900030446060109860B14FEA1B216268501C75
:1053A0006060206881546268501C6060206800F86A
:1053B00002B0C7B1387802280BD1D4E9001288189E
:1053C0003946029AFAF7A8FF6168029808446060BB
:1053D00009E0D4E9001288184A463946FAF79CFFDA
:1053E000606848446060002034E730BCBDE8C08F8E
:1053F00070B505460C4604212046FFF79AFD20684B
:1054000008B9012070BD70216268501C606020687E
:10541000815402216268501C606020688154291206
:105420006268501C6060206881546268501C606033
:10543000206885540020E5E770B505460C46042138
:105440002046FFF776FD206808B9012070BD622173
:105450006268501C60602068815402216268501CA0
:1054600060602068815429126268501C6060206866
:1054700081546268501C6060206885540020E5E714
:105480002DE9FF5F8046174699460E9C0026B246DE
:10549000B3460025B8F1000F03D1012004B000F09D
:1054A0006EB80BE057F8250008B90220F6E757F868
:1054B0002500FAF771FF0644681CC5B24D45F1DBC3
:1054C000F01C00FB09F000F1020A0AF10501204678
:1054D000FFF72FFD206808B90320DFE7822162680B
:1054E000501C606020688154D4E900028118504645
:1054F000FFF708FD0FFA80FBBBF1000F04DA20462E
:10550000FFF7F2FC0420C9E76068584460604FEA86
:1055100018216268501C6060206881546268501CC9
:105520006060206800F80280002524E057F825001C
:10553000FAF732FF0646C6F307216268501C606026
:10554000206881546268501C606020688654D4E9E9
:105550000023D01857F825103246FAF724FF606868
:10556000304460600198C1B26268501C606020687D
:105570008154681CC5B24D45D8DB00208EE730BC95
:10558000BDE8C09FF0B504460D4626460123002025
:105590001060002114E0775C07F07F07106807FBBC
:1055A00003001060705C00F0800008B9481CF0BD7A
:1055B000DB01B3F5001F02D36FF00100F7E7491CD0
:1055C000A942E8DB4FF0FF30F1E72DE9F8438046D0
:1055D0000C4615461E462F2108F10600FAF7D2FEAA
:1055E00007460020009017B90120BDE8F8837F1C12
:1055F0006A46042108F10100FFF7C4FF252003F0EB
:10560000F1FE2060206808B90220EEE7252120681D
:10561000FAF79BFE242239462068FAF77DFE2437EC
:1056200000982C3830803188481C03F0DBFE28605D
:10563000286820B9206803F039FE0320D5E73288B6
:10564000511C2868FAF781FE328839462868FAF733
:1056500063FE0020C9E701464878022801D00120F6
:105660007047887810B18878012801D1C878F7E7A9
:10567000FF20F5E72DE9FC5F81460D4614461E46E6
:10568000DDE90C8B99F8000000F00F0A0020019072
:105690000AF008000090CAF341008BF8000001AA4C
:1056A000042109F10100FFF76DFF4844471C0198F0
:1056B000022802D30AF0010010B1FF2000F0BAB8AE
:1056C0007878397840EA012020802088801C019970
:1056D000884201D9FF20F1E754A1B81CFAF740FE37
:1056E00008B10F20EAE79BF8000020B101283DD067
:1056F000022877D13BE0009808B1FF20DEE721883F
:10570000481C03F06FFE2860286808B9FF20D5E721
:105710002288511C2868FAF718FE2288B91C2868CC
:10572000FAF7FAFD0198801E2188401AA8F80000B7
:10573000B8F80010481C03F055FE3060306820B9FE
:10574000286803F0B3FDFF20B8E7B8F80020511C2B
:105750003068FAF7FAFDB8F80020B4F800C0BB1CB6
:105760000CEB03013068FAF7D7FD4FE000BF20884B
:10577000801C0199884201D9FF209FE72088C01C26
:10578000395C2088801C385C41EA00210E98018039
:105790000E9808B9FF2091E72188481C03F022FEEB
:1057A0002860286808B9FF2088E72288511C2868EB
:1057B000FAF7CBFD2288B91C2868FAF7ADFD0198ED
:1057C000001F2188401AA8F80000B8F80010481CF3
:1057D00003F008FE3060306828B9286803F066FDE1
:1057E000FF206BE710E0B8F80020511C3068FAF792
:1057F000ACFDB8F80020B4F800C03B1D0CEB030171
:105800003068FAF789FD01E0FF2057E700BF2B2140
:105810002846FAF7B7FD20B923212846FAF7B2FD4A
:1058200008B1FF204AE7002048E7000024637265C2
:10583000710000003CBCBDE8C09F014648780228CA
:1058400001D001207047887820B9C8780A2801D192
:105850000020F7E70120F5E701464878022801D04B
:1058600001207047887820B9C8780A2801D1002023
:10587000F7E70120F5E701464878022801D001202A
:105880007047887820B9C8780A2801D10020F7E746
:105890000120F5E702465078022801D00120704728
:1058A0009078B0EB112F05D1D078CBB2984201D1CE
:1058B0000020F4E70120F2E7F8B50446FF2720783E
:1058C0000511012D01DB0E2D01DD3846F8BD032D3C
:1058D00024D1002000906A460421601CFFF752FE8C
:1058E0002044461C0098022803D3207800F00100D1
:1058F00008B1FF20EAE77078317840EA0120801C87
:105900000099884201D9FF20E0E706A1B01CFAF710
:1059100027FD08B10F2700E0032700E02F46384697
:10592000D4E7000024637265710000000146FF2087
:105930008A78A2B9CA78142A11D10A7932B1012A17
:1059400005D0022A04D0802A06D103E000BF00BFA0
:10595000002003E0012001E0022000BF00BF7047EB
:10596000014601208A781AB9CA781E2A00D100207F
:105970007047000000B59DB01C22184916A8FAF720
:10598000CBFC002116A803F074FD154908601C2209
:1059900012491C310FA8FAF7BFFC00210FA803F031
:1059A00068FD104908601C220C49383108A8FAF734
:1059B000B3FC002108A803F05CFD0B4908601C2221
:1059C0000649543101A8FAF7A7FC002101A803F009
:1059D00050FD064908601DB000BD0000785802085F
:1059E00054000020580000205C00002060000020CF
:1059F00000B587B0142102A8FAF7A7FC00BF7F48C2
:105A0000C06C40F004007D49C8640846C06C00F0DA
:105A10000400019000BF00BF00BF0846C06C40F00A
:105A20008000C8640846C06C00F08000019000BF90
:105A300000BF00BF0846C06C40F00100C8640846C3
:105A4000C06C00F00100019000BF00BF00BF08461D
:105A5000C06C40F00200C8640846C06C00F0020050
:105A6000019000BF00BF00BF0846C06C40F01000AE
:105A7000C8640846C06C00F01000019000BF00BF71
:105A800000BF0846C06C40F00800C8640846C06CFF
:105A900000F00800019000BF00BF0022022158481A
:105AA000FCF724FC00224FF435715648FCF71EFC2D
:105AB00001224FF460715448FCF718FC00224FF4A7
:105AC00080714FF09040FCF711FC0022C0214F483C
:105AD000FCF70CFC4FF4005002904FF404100390BC
